:1000000003308A00EB2B00000A108A100A118207C5
:100010003134343437342A343234353438343034AB
:1000200033343634393423342034203420342034EB
:10003000412A45180000412AA6190001412AAB2196
:10004000D321D31EA223D3262200412AAB21CD23C4
:10005000C61E3100412AAB21CE26C91E32163116EA
:10006000301630163000412AAB21CD23D31E221882
:10007000B31CB91CB51A331830110D00C337203A20
:10008000F2376D10E43774106E3461382037E83081
:10009000203161370001412A4418B31CB91CB51A3C
:1000A0003318B01D00014E346138A036613AA035D6
:1000B000E830751D00002A002A002A002A002A00C4
:1000C0002A00C33A6110E430A0366F00CD376910C2
:1000D000F630EF100001CD3074106B34E13AA039E6
:1000E000E1340001CD376910E2306E106E346138B2
:1000F0002036E13400014E346138A036613AA03533
:10010000E830751D000120002000200020002000A4
:100110002000C33A6110E43020326F3767004E345C
:100120006138A036613AA035E830751D00003630E0
:100130008400831300080319AA280630F800F70189
:10014000F70BA028F80B9F287B30F700F70BA628A9
:10015000800B9D2808003C18AF280612B028061610
:10016000831606128312BC18B7288612B828861682
:100170008316861283123C19BF280613C02806175F
:10018000831606138312BC19C7288613C82886173E
:100190008316861300008312881683168812023095
:1001A000F700F70BD128D428000083128812831699
:1001B000881283120800BD018316061600308312D0
:1001C000061A0130BD048316861600308312861A83
:1001D0000130F7000310F70D7708BD0483160617EA
:1001E00000308312061B0130F700F70DF70DFC30CD
:1001F000F7057708BD048316861700308312861B27
:100200000130F700F70DF70DF70DF830F705770817
:10021000BD043D08F80008008316881208138813EF
:1002200083120813831608130616861606178617F8
:10023000831288178316881300008312881683168A
:10024000881200008312DB207808BC008812831615
:100250008812000083128816831688122F293029ED
:1002600000008312DB207808BB00881283168812F6
:10027000061286120613861383123C0EF700F03026
:10028000F70577083B04F8007808BB00BB1F4A2934
:1002900083161429B908031D4F290813502908177C
:1002A0008316081300008312881383168813000036
:1002B000831288128316881283123A0EBB000F3005
:1002C000BB053B08BC00AB203A080F39BB00BC00A3
:1002D000AB2008002830B2000C30B3000130B4006D
:1002E0000630B5008812831688128312081383160D
:1002F00008138312881383168813061286120613B6
:1003000086138812081388130F308312B6009720C3
:100310000130B1003108033C031C96290330BC00B6
:10032000AB200530B6009720B10A8A290230BC0004
:10033000AB200530B6009720B1013108033C031C07
:10034000AD2932303107840083130008B600B901AB
:100350003608BA000C21B10A9D298A110A12172CFD
:10036000360BB329B6294030B700B729B7010130A1
:100370003502B70737088038B800B9013808BA0025
:100380000C2108003408073A0319D0290B3A031945
:10039000D529063A0319DD29023A0319E329E82988
:1003A0000130B500B600B021ED29B9010130BA0025
:1003B0000C210230B6009720ED290130B500023043
:1003C000B600B021ED29B9011030BA000C21ED2999
:1003D0000130B9003408BA000C2108000B08B10044
:1003E0008B13831603178C170C1400000000831264
:1003F0000313B11B8B1703170C087F390319422A0B
:100400000313B10003170D080313B20003170F08FD
:100410000313B3003108B400C221320803178D0062
:100420000313330803178F0003130B08B4008B1357
:10043000831603178C170C1400000000831203139B
:10044000B41B8B1703170C0D0E0D7F390319422AAD
:100450000313B10003170D080313B20003170F08AD
:100460000313B3003108B400C221320803178D0012
:100470000313330803178F008D0A03198F0A031320
:10048000EE290317031308000B08B1008B13831622
:1004900003178C170C140000000083120313B11B08
:1004A0008B1703170C087F3903199A2A0313B1001D
:1004B00003170D080313B20003170F080313B3004B
:1004C00031080C1E612A9900320803178D000313AE
:1004D000330803178F0003130B08B4008B13831624
:1004E00003178C170C140000000083120313B41BB5
:1004F0008B1703170C0D0E0D7F3903199A2A03135E
:10050000B10003170D080313B20003170F080313FC
:10051000B30031080C1E8A2A9900320803178D0097
:100520000313330803178F008D0A03198F0A03136F
:10053000442A031703130800A0122008831687001B
:100540008312871641300C1EA32A990054300C1ECA
:10055000A72A99000D300C1EAB2A99000230B10079
:10056000FA30B6009720B10BB02A183003178D006F
:1005700000308F00031344220D300C1EBD2A990059
:100580000230B100FA30B6009720B10BC22A1B30FE
:1005900003178D0000308F00031344220D300C1E12
:1005A000CF2A99000230B100FA30B6009720B10B83
:1005B000D42A1E3003178D0000308F00031344220D
:1005C0000D300C1EE12A99000230B100FA30B6005D
:1005D0009720B10BE62A253003178D0000308F00DD
:1005E000031344220D300C1EF32A99000230B1008F
:1005F000FA30B6009720B10BF82A2A3003178D0085
:1006000000308F00031344220D300C1E052B99007F
:100610000230B100FA30B6009720B10B0A2B080067
:10062000333003178D0000308F00031344220D3048
:100630000C1E182B99000430B100FA30B600972038
:10064000B10B1D2B3E3003178D0000308F000313BC
:1006500044221A300C1E2A2B99000D300C1E2E2B12
:1006600099001430B100FA30B6009720B10B332B4B
:100670004B3003178D0000308F00031344220D30E0
:100680000C1E402B99003C30B100FA30B600972088
:10069000B10B452B41300C1E4B2B990054300C1ED6
:1006A0004F2B990048300C1E532B99000D300C1E17
:1006B000572B9900A01220088316870083128712F7
:1006C0001430B100FA30B6009720B10B622B08004D
:1006D000B101FF30B200B1013108033C031CE62B2D
:1006E0003108B30083160510831205148316851094
:1006F000831285148316051183120515831685113F
:10070000831285158316051283120516831685122A
:100710008312851683160910831209148316891013
:1007200083128914B308031D992B831605128312B3
:100730000512330B9F2B8316851283128512330803
:10074000023C031DA72B83160910831209103308DE
:10075000033C031DAF2B8316891083128910831667
:10076000851583128519BA2B310DB200B20DFC30FC
:10077000B205AF2B8316051583120519C82B310D51
:10078000F700F70DFC30F7057708013EB200BA2BF1
:100790008316851483128518D62B310DF700F70DBB
:1007A000FC30F7057708023EB200C82B831605140B
:1007B00083120518E42B310DF700F70DFC30F70517
:1007C0007708033EB200D62BB10A6C2B3208F80032
:1007D0008A110A12312C03081F39830081308316D5
:1007E0009900A6309800903083129800FF30A00046
:1007F00083161F149F141F159F1107309C0083132D
:100800008312A101A201A3013130A4003230A5005E
:100810003330A6003430A7003530A8003630A900A8
:10082000AA01AB01AC01AD01AE01AF016A295330A1
:1008300003178D0000308F000313EE2120122008D3
:10084000831687008312071620142008831687005A
:100850008312071C302CA101A301A2019C221023AA
:10086000682B7808B000300F362C3A2D30080C3C3D
:1008700003193A2D30080D3C03193A2D30080E3C6F
:1008800003193A2D30080F3C03193A2D0530B600F4
:100890009720300F4C2C3A2D30080C3C03193A2D80
:1008A00030080D3C03193A2D30080E3C03193A2D3F
:1008B00030080F3C03193A2DA108031D802C300885
:1008C0000420F800AA000630B5000230B600B021BE
:1008D00030080420B100B400C2210230B1009630CB
:1008E000B6009720B10B6F2C0630B5000230B60071
:1008F000B0215B3003178D0000308F000313EE2111
:10090000210BA32C30080420F800AB000730B50001
:100910000230B600B02130080420B100B400C2217A
:100920000230B1009630B6009720B10B922C073000
:10093000B5000230B600B0215C3003178D000030E6
:100940008F000313EE212108023C031DC82C300840
:100950000420F800AC000830B5000230B600B02129
:1009600030080420B100B400C2210230B10096303A
:10097000B6009720B10BB72C0830B5000230B60096
:10098000B0215D3003178D0000308F000313EE217E
:100990002108033C031DED2C30080420F800AD00B5
:1009A0000930B5000230B600B02130080420B10093
:1009B000B400C2210230B1009630B6009720B10BCE
:1009C000DC2C0930B5000230B600B0215E300317D0
:1009D0008D0000308F000313EE212108043C031D1D
:1009E000122D30080420F800AE000A30B5000230A5
:1009F000B600B02130080420B100B400C22102309A
:100A0000B1009630B6009720B10B012D0A30B50029
:100A10000230B600B0215F3003178D0000308F0028
:100A20000313EE212108053C031D392D3008042055
:100A3000F800AF000B30B5000230B600B02130082E
:100A40000420B100B400C2210230B1009630B600DB
:100A50009720B10B262D0B30B5000230B600B02127
:100A6000603003178D0000308F000313EE2101303A
:100A7000A300A10A230BAE2D30080F3C031DAE2DA1
:100A800024082A02031D842D25082B02031D842D12
:100A900026082C02031D842D27082D02031D842DFA
:100AA00028082E02031D842D29082F02031D842DE2
:100AB0000C30B400C221613003178D0000308F006C
:100AC0000313EE210A30B5000230B600B0216630C3
:100AD00003178D0000308F000313EE21A0112008B2
:100AE0008316870083128715A1010830B100FA3000
:100AF000B6009720B10B772DA01120088316870030
:100B000083128711A301AE2D0C30B400C2216B30CB
:100B100003178D0000308F000313EE210130B50064
:100B20000230B600B021723003178D0000308F0004
:100B30000313EE210830B100FA30B6009720B10B54
:100B40009C2D0C30B400C2217B3003178D00003087
:100B50008F000313EE21A101A301A20A30080C3C6F
:100B6000031D1E2E0530B600972030080C3C031DD7
:100B70001E2E210BC82D0630B5000230B600B02164
:100B8000833003178D0000308F000313EE21A10383
:100B90002108023C031DD92D0730B5000230B600F4
:100BA000B021843003178D0000308F000313EE2135
:100BB000A1032108033C031DEA2D0830B5000230D3
:100BC000B600B021853003178D0000308F0003136D
:100BD000EE21A1032108043C031DFB2D0930B500C3
:100BE0000230B600B021863003178D0000308F0030
:100BF0000313EE21A1032108053C031D0C2E0A302E
:100C0000B5000230B600B021873003178D000030E8
:100C10008F000313EE21A1032108053C03181E2EAB
:100C20000B30B5000230B600B021883003178D00BC
:100C300000308F000313EE210530A1002208053C8F
:100C4000031D332EA01220088316870083128716F7
:100C5000A101A3019C221023A201A0122008831647
:100C600087008312871230080E3C031D672E053063
:100C7000B600972030080E3C031D672E2011200877
:100C800083168700831207150C30B400C221893007
:100C900003178D0000308F000313EE210830B100E0
:100CA000FA30B6009720B10B502E20112008831681
:100CB0008700831207110C30B400C2218F30031754
:100CC0008D0000308F000313EE21A101A3011E2C23
:020CD0006300BF
:02400E00323F3F
:00000001FF
;PIC16F877A
;CRC=76FA  CREATED="29-Dec-19 23:38"
